:10200000008000209987000005860000818700007D
:1020100000000000000000000000000000000000C0
:1020200000000000000000000000000081870000A8
:10203000000000000000000081870000ED87000024
:102040008187000081870000818700008187000070
:10205000C9850000818700008D5E00008587000033
:1020600081870000316500008187000081870000C2
:10207000C55900008187000041650000818700008C
:102080008187000081870000818700008187000030
:102090001D320000818700008187000081870000D9
:1020A0008187000081870000818700008187000010
:1020B0000000000010B5064C2378002B07D1054B1B
:1020C000002B02D0044800E000BF0123237010BDA4
:1020D000E008002000000000503A0100044B10B559
:1020E000002B03D00349044800E000BF10BDC046E8
:1020F00000000000E4080020503A01007047000092
:1021000010B5034804F0D0FD024B4010186010BD1C
:102110008C3100200410002010B50400034B036034
:10212000183006F07FFA200010BDC046802901005B
:1021300010B50400024B0360FFF7EEFF200010BD56
:102140009829010070B505000C00081E07D00CF09E
:1021500039FA2B680200210028005B68984770BD9F
:1021600010B50A004369016904F0B2F810BD10B55A
:102170004269016904F0F8F810BD0000C4230F495A
:102180000F4A5B0010B5CA50D422EAB0520068462C
:102190000BF098FA0B4C2000FFF7E9FF694620008E
:1021A000FFF7DEFF084B1B78002B04D1074B0849D3
:1021B0001868FFF7C7FF6AB010BDC046440E002084
:1021C000A5A555AAEC0F0020AC2200205006002047
:1021D0005C22010030B51A481A4CEBB04369016922
:1021E0006A46256804F0D2F8D422694652002800D5
:1021F0000BF068FAC42123684900134A5958134860
:10220000134C91420DD1D422190052000BF05AFA0E
:102210002378002B12D10F490F4B1868FFF792FF5C
:102220000CE0D4220100520018000BF04BFA6E2291
:102230000A4B0B491A602378002BEDD06BB030BDF0
:10224000EC0F0020B8010020A5A555AA440E0020DF
:10225000AC2200205C220100500600206C120020FD
:1022600060220100BFF34F8F034B044ADA60BFF3D3
:102270004F8FC046FDE7C04600ED00E00400FA05C0
:10228000D42210B5EAB00C49520068460BF01AFA95
:102290000A4C2000FFF76BFF69462000FFF760FF44
:1022A000074B1B78002B04D1064B07491868FFF732
:1022B00049FF6AB010BDC0460C000020EC0F0020A2
:1022C000AC220020500600205C2201007047000074
:1022D00010B50C00496808F01DFEA16808F0B4FABA
:1022E00009F0FAF880235B02984201DB024810BD36
:1022F000C343DB171840FAE7FFFF0000F8B50600FC
:102300000C001500EFF3108772B6002106F030FDC7
:10231000E100782421402C122143074C200003F0D7
:1023200025FCE9B2200003F021FC0121300006F079
:102330001FFD87F31088F8BD20250020F7B50400A5
:102340000191EFF3108772B601252A008A4002211D
:1023500092B2FFF7D3FF0021200006F009FD114ED5
:102360000021300003F007FC2900200006F000FDEA
:102370000021200006F0FCFC0021300003F0FBFBF4
:1023800006002900200006F0F3FC019A73045B0F9D
:102390009A4204D13601B0B287F31088FEBD012005
:1023A0004042F9E720250020F7B50D0000216956CD
:1023B00014001E1C002928DA4023002701937F23E4
:1023C0002878184006F02CFC10233F18013BFDD163
:1023D000019B013B0193002BF1D1F8170333184007
:1023E000C019801009F098F8A96808F0ADFE696876
:1023F00008F0C6FB2768051C1149381C08F03AF99B
:10240000002809D02560012304E0FFF797FF00238F
:10241000421CE7D11800FEBDFE20311C800508F0EB
:1024200093FE391C08F076FD291C071C301C08F0AF
:1024300071FD011C381C08F007FA2060E3E7C04674
:10244000000080BF70B5204CE37D002B3AD0230004
:102450002C331B78002B35D00A261C4D1C4B2B61CE
:102460002A0000201B4B1C491032013EFFF79CFF45
:10247000002EF5D12969A06A08F066FE8021051CAE
:1024800040004008C90508F0FBF800281AD1134B9A
:10249000281C196808F03EFD114908F071FB616ABB
:1024A00008F0D2F9E56B6062291C08F0FDF80028FD
:1024B00000D065620025606A291C08F0E1F8002858
:1024C00000D0656270BDC046440E0020C4010020EB
:1024D000000080BFCDCCCC3DE00E0020BC01002030
:1024E0000000C842F7B500240F0015002600019037
:1024F000B54208DD39000198FFF720FF431C06D0E4
:1025000024180136F4E72900200007F07DFFFEBD06
:10251000F8B504000B00EFF3108572B611049BB2FE
:102520001B030C4E090D19430E43002106F020FC3D
:1025300036B2094FB1B23800090A03F017FBF1B205
:10254000380003F013FB0121200006F011FC85F395
:102550001088F8BD0080FFFF2025002070B5040022
:10256000012106F0D5FB2000012106F001FC8022AC
:10257000200003215200FFF7C1FE802220000B2122
:102580009200FFF7BBFE200000220721FFF7B6FEF6
:10259000200006220821FFF7B1FE200007220521B6
:1025A000FFF7ACFE0D4D2000F0220421FFF7A6FE40
:1025B000200000220621FFF7A1FE2A0020000021B2
:1025C000FFF7A6FF2A0020000121FFF7A1FF2A0044
:1025D00002212000FFF79CFF70BDC046FF7F000076
:1025E000F7B51C000E4B15001E781768019000917E
:1025F000002E05D12068391C08F03CF800280DD1C8
:102600000099381CFFF764FE00210126009B0200A0
:1026100059560198FFF77CFF2B6823603000FEBD00
:1026200028120020F7B52D4C2D49206803F0ECFF4F
:102630002C4E2768300002F073FE0AF0CBFD022515
:1026400002000B000095380004F01AF926492068B2
:1026500003F0ECFF2549206803F0D6FF300027681F
:1026600002F08AFE224908F08BFA0AF0B3FD0095C9
:1026700002000B00380004F003F91E49206803F043
:10268000D5FF1D49206803F0BFFF30001B492768B4
:1026900002F094FF0AF09EFD009502000B00380046
:1026A00004F0EEF81649206803F0C0FF15492068D1
:1026B00003F0AAFF3000276802F02AFF0AF08AFD23
:1026C000009502000B00380004F0DAF80E4920688B
:1026D00003F0ACFF206803F0A1FFF7BD5006002017
:1026E000652201008C0D0020742201007822010077
:1026F0000000C842842201008922010000507D446C
:102700009D220100A0220100AC220100022270B52E
:10271000134C236893432360A3689B07FCD4114E9A
:102720001148F16907F070FE64210500306A081A4B
:10273000684307F069FE80B2A064A368DB05FCD49F
:10274000A3689B05F9D4ADB22564A3681B06FCD42D
:102750000223226813432360A3689B07FCD470BD47
:1027600000200042440E0020006CDC0270B5002105
:10277000051C07F07FFF00283CD00121052006F052
:10278000C7FA0121052006F0F3FA0021281C07F002
:1027900077FF002833D11B49281C07F085FF00284C
:1027A00000D0184D0222184C236893432360A3687D
:1027B0009B07FCD41549281C08F0ACFB0AF00AFD65
:1027C0000022134B09F058FA07F0CEFF032280B223
:1027D000A064636993436361A368DB05FCD4A368C9
:1027E0009B05F9D40223226813432360A3689B0747
:1027F000FCD470BD0521080006F0FEFAC5E70025EF
:10280000D0E7C0460000C8420028004200007044E3
:1028100000005940F0B5204E85B0F37D051C002B1B
:1028200033D000241D4AA300D758291C381C07F0B8
:102830003BFF00282BD0002C27D01949F06B08F063
:102840009FF90190200008F067FE019908F062FBF3
:10285000291C0290381C08F077FC3534A40031594B
:102860000390381C08F070FC011C039808F088F9EC
:10287000019908F04FFB011C029808F065FC70629A
:10288000FFF774FF074BB5621D6105B0F0BD013461
:10289000152CC7D1F9E7C046440E00201C0F0020BC
:1028A0000000A0412812002030B5040085B018496E
:1028B00001A805F0FFFE210001A805F00EFF01A808
:1028C00005F058FF0021041C07F0DAFE114D002826
:1028D00005D11149201C07F0E7FE00280FD0022285
:1028E0000E4B1A602B78002B04D10D490D4B186844
:1028F000FFF728FC01A805F095FE05B030BD201CAF
:10290000FFF788FF2B780849002BF3D1EEE7C0468C
:1029100074290100AC2200200000FA446C1200204F
:1029200060220100500600205C220100F8B5424CF4
:1029300005002300B4331F682300B0331E68381C21
:10294000311C07F097FE002846D1311C381C08F0D6
:10295000FBFB2300C433071C186808F0DDFD011CD5
:10296000381C08F00DF9071C280008F0D5FD011CE3
:10297000381C08F0CFFA311C07F066FFFC21260056
:102980002063890508F0C6FA7836616B002707F0E6
:102990005BFF3100FFF79CFCF75702003900012074
:1029A000FFF7B6FD8022FC212700236B1206981842
:1029B000890508F0AFFA8437616B002607F044FF01
:1029C0003900FFF785FCBE57020031000120FFF7F8
:1029D0009FFD1A4B226B9A612300AC331F682300C2
:1029E000A8331E68381C311C07F044FE00281ED195
:1029F000311C381C08F0A8FB2300C433071C1868DE
:102A000008F08AFD011C381C08F0BAF8071C2800E1
:102A100008F082FD011C381C08F07CFA311C07F01C
:102A200013FFA062FFF7F6FEA26A044B1A610122AF
:102A3000034B1A70F8BDC046440E00202812002037
:102A4000090B0020F7B5314C0090E37D002B5CD0E2
:102A50002F4BA0621861642301932E4D0A262F008C
:102A60002D4B10372B613A0000202C4B2C49013E96
:102A7000FFF79AFC002EF6D12969009808F064FB54
:102A8000FE2146007608051C8905301C07F002FE71
:102A900000283AD1301C0AF09DFB060000980F0078
:102AA0000AF098FB1F4A204B09F0ECFC02000B00D7
:102AB0003000390007F0B4FD002826D11B4B281C3C
:102AC000196808F027FA1A4908F05AF8616A07F0FD
:102AD000BBFEE56B6062291C07F0E6FD002800D014
:102AE00065620026094D311C686A07F0C9FD00289F
:102AF00000D06E62686AFFF739FE012005F0BAFE69
:102B0000019B013B0193002BA7D1F7BD440E002090
:102B100028120020C4010020000080BFCDCCCC3D95
:102B2000E00E0020FCA9F1D24D62503FBC01002014
:102B30000000C84230B5040085B0184901A805F06E
:102B4000B9FD210001A805F0C8FD01A805F012FE9D
:102B50000021041C07F094FD114D002805D11149F6
:102B6000201C07F0A1FD00280FD002220E4B1A6096
:102B70002B78002B04D10D490D4B1868FFF7E2FAB2
:102B800001A805F04FFD05B030BD201CFFF75AFF2E
:102B90002B780849002BF3D1EEE7C04674290100D9
:102BA000AC2200200000FA446C12002060220100D8
:102BB000500600205C220100F7B5224EF37D002B69
:102BC0003ED000252049F06B07F0DAFF041C2800F6
:102BD00008F0A2FC011C201C08F09CF9FFF7C6FDC0
:102BE000FA2005F047FE6422184B194C009223612D
:102BF00001932200174F184B390000201032FFF7C5
:102C0000D3FB009B013B0093002BF2D1134A2169B7
:102C1000AB000135D150152DD4D1706AFFF7A6FD58
:102C2000642005F027FE019B4F3523612200390007
:102C30000020094B1032013DFFF7B6FB002DF5D106
:102C4000F7BDC046440E00200000A041000080BF38
:102C5000C4010020E00E0020CDCCCC3D1C0F002094
:102C6000F7B59B4C9B4FA06B396807F009FD002816
:102C700005D0FE21606A890508F066FA6062E56B9E
:102C8000606A291C07F010FD002800D0656200254D
:102C9000606A291C07F0F4FC002800D065628E4DA4
:102CA0002B78002B00D0CBE06B68E269934200D018
:102CB000C6E00823226AEB56934200D0C8E02B00FE
:102CC000864A874920330120FFF78AFC854D864BD1
:102CD0002A00864908320120FFF766FB2A00824B52
:102CE0000C3201208249FFF75FFB824B824E1A783B
:102CF000002A06D000221A70804B814A2B61136093
:102D000033603200784B7F490120FFF74DFB764B53
:102D10007B4A7D490120FFF747FB724D724B2A0029
:102D20007A4910320020FFF73FFBE968A86808F0F5
:102D3000F1F8774907F024FF714B386037681E6857
:102D4000381C311C07F080FD311C68600190381C74
:102D500008F0FAF9019908F0F7F92860E37D5E4D73
:102D6000002B00D197E06B4B666A1B78002B74D167
:102D700001332B70301CFFF7F9FC636AEB602B7892
:102D8000002B74D0FC212600206B890508F0C2F8C6
:102D90007836616B002707F057FD3100FFF798FA8E
:102DA000F757020039000120FFF7B2FB8022FC2117
:102DB0002600236B12069818890508F0ABF88436B4
:102DC000616B002707F040FD3100FFF781FAF757EC
:102DD000020039000120FFF79BFB236BAB612B78CE
:102DE000002B4AD0FC212600206B890508F092F8C0
:102DF0007836616B002707F027FD3100FFF768FA8E
:102E0000F757020039000120FFF782FB8022FC21E6
:102E10002600236B12069818890508F07BF8843683
:102E2000616B002707F010FD3100FFF751FAF757EB
:102E3000020039000120FFF76BFB636BEB6122E0BE
:102E4000FFF764FCE3696B602B78002B00D130E75F
:102E5000FFF75CFC236A2B7231E72B78002B89D1BA
:102E6000E868311C07F006FC002800D182E7A96958
:102E7000206B07F0FFFB002884D0E969606B07F046
:102E8000F9FB0028AED0FFF7DDFA00232B70E37DBD
:102E9000204A1370F7BD0020FFF768FC21000026D0
:102EA000783100208E57FFF713FA3100020001201D
:102EB000FFF72EFB21000026843100208E57FFF7FC
:102EC00007FA310002000120FFF722FBDBE7C046D2
:102ED000440E0020180B002028120020FC0E0020B9
:102EE000D40E0020C4010020CDCCCC3DA40E002087
:102EF000B00E0020090B002004000020000080BF5D
:102F0000080000208C0E0020980E0020E00E00200B
:102F100000007A44880D0020052110B5080005F056
:102F20006BFF5A4B5A4A5A805A78D209FCD1594BF6
:102F3000013219680A431A609A68D207FCD4022148
:102F40001A688A431A609A689207D10F002AFADB3E
:102F500002221960DA639A685206FCD49A68D20594
:102F6000FCD49A689205F9D408229A649A68D2052A
:102F7000FCD49A689205F9D41E221A649A68120643
:102F8000FCD4022219680A431A609A689207FCD49A
:102F90000521032005F030FF01233F4A11680B4350
:102FA00013609368DB07FCD4022113688B43136022
:102FB00093689B07D90F002BFADB02231160D363C0
:102FC00093685B06FCD49368DB05FCD493689B058F
:102FD000F9D480230321936453698B43190001239F
:102FE0000B4353619368DB05FCD493689B05F9D4CC
:102FF000FF23136493681B06FCD4022311680B4360
:10300000136093689B07FCD40421262005F0F4FE8E
:103010001E4B224A5A805A78D209FCD1204B0132E9
:1030200019680A431A609A68D207FCD402211A6808
:103030008A431A609A689207D10F002AFADB0222AB
:103040001960DA639A685206FCD49A68D205FCD4F7
:103050009A689205F9D4642203219A645A698A43D2
:103060005A619A68D205FCD49A689205F9D4F02284
:1030700092001A649A681206FCD4022219680A4364
:103080001A609A689207FCD410BDC046000C00403C
:103090001A40000000200042002400421B400000B3
:1030A00000280042502370B5474CEAB00720237037
:1030B00005F08AFE012803D10223227813432370EE
:1030C000062005F081FE012803D104232278134352
:1030D000237001F0BDFA3D483D4D436901696A46E0
:1030E0002E6803F053F9D4226946520030000AF0EA
:1030F000E9FAC42229685200364B8A58364D9A4262
:103100005ED1D422520028000AF0DCFAD422290031
:10311000520032480AF0D6FA01F0CAFB304D2800BE
:1031200002F006FE2800012102F0FAFC280020210E
:1031300002F014FD0321280002F0FCFC0120FFF73F
:103140000DFA0C2005F002FD2178264C002220000B
:1031500002F0B6FA244D280003F0F2FC8423234A3F
:10316000DB03516A28000B43536203F0D4FC2000B8
:103170001F4902F0D1FA20001E4902F0D1FA2000C6
:103180001D4902F0D1FAFFF7C7FE1C4C1C49200074
:1031900001F00AFF20001B4901F02CFF200019213B
:1031A00001F0CCFE2100184801F056FF0122174B18
:1031B00017491A70174B186803F038FA6AB070BDD7
:1031C000D422154952009EE7B5010020EC0F0020E3
:1031D000B8010020A5A555AA440E0020080900202A
:1031E00020250020E82200208C310020001400421D
:1031F000DD3A0000F5350000012100002C0B002015
:10320000AF220100612C0000D40D00202812002004
:10321000B9240100500600200C000020054B10B519
:103220001B68002B00D098471023034A917B0B4367
:10323000937310BDD00D0020003400420222044BD5
:1032400019880A431A80DA7B52B2002AFBDB7047E6
:10325000003400420122054B1A80DA7B52B2002A68
:10326000FBDB1A88D207FCD47047C046003400420A
:10327000174B70B51A78002A25D00022154C1A7009
:103280002300CC331B7893421ED02300D033186820
:1032900005F05AF9FE21104B890518680F4D606240
:1032A00007F052FFFE210E4BE86018688905A06206
:1032B00007F04AFFFE210B4B28611868890520633F
:1032C00007F042FFA86170BDFFF7C4FFE2E7C04608
:1032D000280B0020440E0020100B00202812002094
:1032E000140B00200C0B002010B5FFF7C1FF054B9D
:1032F0001B78002B04D1044B04491868FEF722FF09
:1033000010BDC046AC220020500600205C22010007
:1033100070B504003A4B3B4A19603B4B5A805A78CF
:10332000D209FCD1FFF796FF384B39481A88604321
:1033300092B21A80202219880A431A8080225202EF
:10334000904222DA022219880A431A800200802160
:10335000304892B249031A832F4AC167BFF34F8F97
:10336000BFF36F8FC020C524FF2540001150A4007B
:103370001059A843105111601022597B0A435A7307
:10338000DA7B52B2002AFBDB70BD802292029042AF
:1033900006DA812142101888490001431980D6E7D6
:1033A0008022D202904203DA82101C491888F4E786
:1033B00080221203904203DAC21019491888ECE700
:1033C00080225203904203DA021116491888E4E77A
:1033D0008022D203904203DA821113491888DCE775
:1033E00080225204904203DA021210491888D4E76E
:1033F00080218212C9048842A9DA18880C49CCE7D6
:10340000D00D00201C400000000C004000340042A1
:1034100080BB000004E100E000E100E002020000E7
:103420000203000002040000020500000206000082
:1034300002070000012270B500261A4B1A4C1A70C0
:103440001A4BA26A1E601A4B1A601A4B626A1A6003
:10345000194B226B1A60194B1A68194B1A60194BD9
:1034600018703000FFF762FA05F0CEF9164B174DD1
:1034700018602300CC331B78B3420AD0D03431001B
:10348000206805F045FC04222900206804F09AFF1A
:1034900070BDC83429002068FFF73AFFFFF7CEFE61
:1034A000F6E7C046280B0020440E0020000900204B
:1034B000140B0020100B00200C0B002050060020E5
:1034C0001C0B0020FC080020240B0020BD3B00004A
:1034D000012010B5FFF7AEFF044B1B78002B04D181
:1034E000034B04491868FEF72DFE10BDAC220020E6
:1034F000500600205C22010030B508221D2403780C
:1035000059404DB24B00D9B2002D01DA6340D9B217
:10351000013A002AF5D1017030BD000070B5154D9B
:10352000280002F0EFFF144C28002200134905F098
:1035300097FD0421124801F000FED42211495200E7
:10354000114802F0ADFE114D0021280001F0B0FD40
:10355000220028000E4905F083FD00220D4D1100C8
:10356000280001F003FD280022000B4905F078FD3A
:1035700070BDC04608100020000000201D6500003E
:103580008C0D002000250100EC0F0020D40D002040
:10359000312100002C0B00201921000070B5124EC3
:1035A000300002F027FF0022104B040019781500AC
:1035B00091420BD00E4DC1B2241228001A7002F0B5
:1035C00004F92800E1B202F000F970BDA542FCDA6E
:1035D0001E2DFAD0300002F011FFC1B2044802F0F3
:1035E000F4F80135F2E7C04608100020200B002057
:1035F000E8220020002170B5124D134B2A681340B9
:10360000124A2B605156124A481C1268904211D13E
:103610008022520013432B6000240E4B2A681B1992
:10362000995C0D4802F0D1F8002809D00134202C13
:10363000F3D105E020230B439A42EDD1FFF7AEFF13
:1036400070BDC04604090020FFFEFFFFB501002049
:103650000410002008090020E822002070B5194D50
:103660000400280001F0F4FF002801D1002070BD03
:10367000280002F00DF92060280001F0E9FF002881
:10368000F4D0280002F004F92368000218432060F7
:10369000280001F0DDFF0028E8D0280002F0F8F84B
:1036A0002368000418432060280001F0D1FF00289F
:1036B000DCD0280002F0ECF82368000618432060F4
:1036C0000120D4E7E822002010B5074C200001F0CB
:1036D000BFFF002804D0200002F0DAF8C0B210BD0D
:1036E00001204042FBE7C046E822002070B5074DAC
:1036F0000400280001F0ACFF0023984204D0280009
:1037000002F0C6F801232070180070BDE8220020E6
:1037100070B50400061D074D280001F099FF002830
:1037200007D0280002F0B4F820700134B442F2D17E
:10373000012070BDE822002070B504000025EAB029
:10374000631E144EAB420ADD134802F0A1F8336841
:10375000124AEB18DB05DB0DD0540135F0E7306879
:103760002418012C13DD0C2005F02EFB00280ED1AF
:10377000D4220B4B52001968684609F0A3FF094C8C
:103780002000FEF7F4FC69462000FEF7E9FC6AB071
:1037900070BDC04604090020E8220020080900206E
:1037A000B8010020EC0F002070B50A4D041CC1B216
:1037B000280002F0F8FD21042800090E02F0F3FDB4
:1037C00021022800090E02F0EEFD2800210E02F071
:1037D000EAFD70BD08100020F0B5FF26012485B079
:1037E000B34D280001F034FF002800D15DE128002E
:1037F00002F04EF8AF4BB04D1A68AA4207D1C0B2E2
:10380000AE4A1B2800D108E101F086FBE8E7304012
:1038100029282FDC0028E3D001382828E0D806F03A
:1038200055FD350053005C003F0069008400A50091
:10383000AF00B900C300CD00D800E100EA00F300FA
:10384000FE00070112011C012001230127014A008B
:103850008E00DFFFDFFFDFFFDFFFDFFFDFFFDFFFC8
:10386000DFFFDFFFDFFFDFFFDFFFDFFFDFFF330013
:10387000DFFF9A0081380428B2D806F031FDFD0040
:10388000FB000B01100113011D60A9E7FFF71CFFEE
:103890000290431CA4D0431E9841894BD8759FE7E2
:1038A000FFF712FF0290431C9AD0431E9841844BAD
:1038B0002C33187094E7FFF707FF0290431C8FD05A
:1038C000431E98417F4BF4E702A8FFF7C7FE00288C
:1038D00086D07B4B029ADA6182E76B46DD1D2800B9
:1038E000FFF704FF002800D17AE70022744BAA56A4
:1038F0001A6275E703A8FFF70BFF002800D16FE7F6
:103900006F4D039BEF6B6B62391C181C06F0CCFEED
:10391000002800D06F620027686A391C06F0B0FEEC
:10392000002800D15CE76F625AE703A8FFF7F0FEBA
:10393000002800D154E7624B039A9A6250E703A82B
:10394000FFF7E6FE002800D14AE75D4B039A9A6232
:103950005D4B1C7044E703A8FFF7DAFE002800D196
:103960003EE7574B039A9A62584BF2E703A8FFF7DA
:10397000CFFE002800D133E7514B039ADA632FE7DB
:1039800003A8FFF7C5FE002800D129E74C4B039A96
:103990009A6325E703A8FFF7BBFE002800D11FE7C5
:1039A000474B039A1A631BE703A8FFF7B1FE0028F1
:1039B00000D115E7424B039A5A6311E703A8FFF7BA
:1039C000A7FE002800D10BE73D4BB033039A1A60E5
:1039D00006E703A8FFF79CFE002800D100E7384B5C
:1039E000B433F3E703A8FFF793FE002800D1F7E60E
:1039F000334BA833EAE703A8FFF78AFE002800D17B
:103A0000EEE62F4BAC33E1E702A8FFF727FE0028D4
:103A100000D1E5E62A4BC833029A1A60E0E602A814
:103A2000FFF71CFE002800D1DAE6254BC433F3E78C
:103A3000FFF74AFE0290431C00D1D1E6431E984195
:103A40001F4BCC3335E7FFF73FFE0290431C00D1FC
:103A5000C6E61B4BD0331860C2E60020FFF7EAFC35
:103A6000BEE6FFF705FCBBE6280002F058FDB7E60E
:103A7000174B6EE7174B6CE700230293029B132B47
:103A800000D9ADE6144A2800D15C02F08CFC029B00
:103A90000133F2E70A4B586AFFF786FEA0E6084BAF
:103AA000986AF9E7064B186BF6E705B0F0BDC0461B
:103AB000E822002050060020081000209831002045
:103AC000440E0020B4010020290B00202A0B002006
:103AD000080B0020200B0020C401002070B5041E3C
:103AE0001FD0002300210F4D2B600F4B59560F4B59
:103AF0001A684B1C93420ED180235B002B600C484C
:103B000001F0C6FE2B6818432860012C09D0200064
:103B1000FFF712FE05E020230B439A42EFD1FFF797
:103B20005BFE70BD04090020B501002004100020D8
:103B3000E8220020F7B505000C1E2AD01B4C0A22F3
:103B4000216802F0C4FD1A4F2800390002F05CFD24
:103B50000A226168280002F0C8FD3900280002F03E
:103B600053FDA06809F036FB022602000B00280076
:103B7000009602F085FE3900280002F045FDE0685D
:103B800009F028FB009602000B00280002F07FFEDF
:103B9000F7BD084B1B78002BFAD0044B0648E15CBC
:103BA000013402F000FC102CF7D1F1E75C12002088
:103BB00042270100B401002008100020134B70B50B
:103BC0001B78002B18D0124D124C2B680133236048
:103BD00004F01AFE104B1B68C01A104B60609A6A02
:103BE000A2601A6BC433E2602A681B68501C28600C
:103BF000984202DDFFF73CFB70BDFEF797FE084BD5
:103C00001978084B1868FFF795FFF5E7280B002097
:103C1000000900205C120020240B0020440E00202C
:103C2000FC0800201C0B002070B50C4D040028007F
:103C300003F04EF9002805DD280003F079F9C0B241
:103C400001F06AF9002C08D0054800F053FF002865
:103C500003DD01F003F80028FBD070BD983100208F
:103C600070120020012010B5FFF7DEFF0F4801F0B1
:103C7000C9F90F4B1A78002A03D000221A70FEF7F8
:103C80009BFF0C4C2378002B05D00B4B986AFEF75A
:103C9000D9FE00232370094C2378002B05D0064B56
:103CA000986AFEF7B7FD0023237010BDD40D0020E5
:103CB000080B0020290B0020440E00202A0B0020B6
:103CC00010B50020FFF7B0FF014801F09BF910BDCF
:103CD000D40D0020F0B587B00C000500214903A8E1
:103CE0001E00019204F0E6FC002C09D0210030688F
:103CF000FEF7EEFA0021020061562800FEF708FCEC
:103D0000194F1A49386802F07FFC012000F064FF67
:103D1000041E02D1FFF7D4FFF7E7010003A804F067
:103D2000DCFC2100386802F081FC03A804F022FDCD
:103D30003060012000F050FF041E02D0FFF7C0FFEA
:103D4000F7E7019B002B06D000210A2228005956D4
:103D5000FEF7C8FB040003A804F064FC200007B0D1
:103D6000F0BDC0467429010050060020B6220100B3
:103D7000F0B50F000600524C89B0524920681D1C56
:103D8000029202F053FC39003000029A06AB06950D
:103D9000FFF7A0FF0E9B029A3900049007933000B2
:103DA00007ABFFF797FF39000590281CFEF790FA44
:103DB000390005000E98FEF78BFA069B401B039313
:103DC00007F0AAFB0399061C079807F0BDF9011C30
:103DD000301C06F0D5FE061C280007F09DFB311CA8
:103DE000051C039807F096F8011C281C07F0ACF995
:103DF0003549051C206802F019FC3449206802F09E
:103E000003FC301C09F0E6F90B00022100910200CE
:103E1000206802F03CFD2E49206802F0F5FB281CCA
:103E200009F0D8F90B00022100910200206802F08D
:103E30002EFD029B7E60BD60002B3ED0059B049A48
:103E4000069E981A07F068FB311C051C079807F0BE
:103E50007BF9011C281C06F093FE051C049807F052
:103E60005BFB291C071C301C07F054F8011C381C94
:103E700007F06AF91749061C206802F0D7FB1349BE
:103E8000206802F0C1FB0227281C09F0A3F9009763
:103E900002000B00206802F0FAFC0D49206802F0D5
:103EA000B3FB301C09F096F9009702000B00206864
:103EB00002F0EDFC029B5D609E6009B0F0BDC04663
:103EC00050060020CB220100E72201000B23010055
:103ED000102301001523010073B50D4B0D4918681F
:103EE00002F0A4FB0C4E0D4C002300222100009692
:103EF00001200025FFF73CFF2100301CFEF7E8F908
:103F00006557020029000120FEF702FB73BDC04681
:103F100050060020392301000000A03FD40E0020ED
:103F200037B50F4B0F49186802F080FB0E4D0F4B51
:103F300029000F4A009301200023FFF719FFFC21FD
:103F40000C4B8905186B002406F0E4FF2900FEF7EE
:103F5000BFF92C57020021000120FEF7D9FA37BD26
:103F60005006002073230100BC0E002000004041D9
:103F70008C0E0020440E002037B5114B11491868F3
:103F800002F054FB104D114B2900114A00930120FF
:103F90000023FFF7EDFE0F4BFC21186B80231B065F
:103FA000C0188905002406F0B5FF2900FEF790F936
:103FB0002C57020021000120FEF7AAFA37BDC046A7
:103FC00050060020A4230100C80E0020000040413C
:103FD000980E0020440E0020F0B58BB06A4907A867
:103FE00004F068FB694C6A49206802F01FFB6948CD
:103FF000FEF7BCFB684F2068390002F005FB01208A
:1040000000F0EAFD051E02D1FFF75AFEF7E7FA239A
:1040100000269B0003930E2004F002FE36180120B8
:1040200004F028FC039B013B0393002BF3D1FA21FE
:104030003000890006F0E8F92900030107A804937D
:1040400004F04BFB2900206802F0F0FA07A804F006
:1040500091FB0590012000F0BFFD002802D0FFF782
:104060002FFEF7E74D48FEF781FB3900206802F08C
:10407000CBFA012000F0B0FD051E02D1FFF720FEB3
:10408000F7E7FA270026BF000E2004F0C9FD013F24
:104090003618012004F0EEFB002FF5D1FA21300094
:1040A000890006F0B1F92900030107A8039304F081
:1040B00014FB2900206802F0B9FA07A804F05AFBA3
:1040C000051C012000F088FD002802D0FFF7F8FD54
:1040D000F7E7049B039A981A07F01EFA291C061C9E
:1040E000059807F031F8011C301C06F049FD2C4FF3
:1040F0000490A0373860039807F00EFA291C03904B
:10410000049806F007FF011C039807F01DF8244EE1
:104110002449A4363060206802F088FA22492068D9
:1041200002F072FA0225386809F054F8009502008E
:104130000B00206802F0ABFB1C49206802F064FA17
:10414000306809F047F8009502002068FA240B0057
:1041500002F09DFB124BA400586AFEF707FB642097
:1041600004F088FB124D134B2B612A000020124BE8
:1041700012491032013CFEF717F9002CF5D107A8BF
:1041800004F050FA0BB0F0BD742901005006002075
:10419000D52301000000204107240100000048420F
:1041A000440E0020152301000B2301001023010001
:1041B000C4010020000080BFCDCCCC3DE00E00202B
:1041C000F0B50127984E89B033680500974C0191EE
:1041D0003B4209D19649200004F06CFA2000954A30
:1041E0009549376004F03CFF0021944B10222800D1
:1041F00019700BF0CFF8924D01992860200004F05F
:104200006CFA200004F0A3FA8E4B8F4E1B783060BE
:10421000002B04D18D4B8E491868FDF793FF0024C5
:104220008C4B3268296802A81C6002F039F80194AE
:10423000854B019A1B68934200DC80E004F0E4FAAD
:10424000854E3060854F380000F082FCFF280CD18D
:104250000020FFF7E9FC04F0D7FA3368804A9B1886
:104260009842EFD9794C7F494AE07F4C2070380062
:1042700000F06EFCFF280AD10020FFF7D5FC04F007
:10428000C3FA3368764A9B189842F0D9EAE70023CC
:10429000764E6070320020007549A3700AF00AF96A
:1042A0006C4C31682368734F5E1CC9B26348F95483
:1042B0002660FFF721F980235B009E423BD100235B
:1042C000236072B680225E4C5200216802A802F080
:1042D0004BF880233A0021685B0002A801F0F8FF48
:1042E0008023654E5B003200216802A802F04EF880
:1042F0000023F95CF25C91420FD062B6534C5F49E7
:10430000206802F093F94F4B1B78002B00D085E01A
:104310005B492068FDF716FF80E0802201335200E0
:104320009342E6D162B6236856499B182360474BF7
:10433000186802F07BF9019B0133019378E7454C43
:104340002368002B1EDD72B62268296802A802F0DD
:104350000BF8484E23683200296802A801F0B8FF24
:10436000454F23683A00296802A802F00FF800239D
:1043700022689A4205DDF05CF95C8842BDD10133C8
:10438000F7E762B604F040FA334C2060334800F09F
:10439000DFFBFF280AD10020FFF746FC04F034FAC7
:1043A00023682F4A9B189842F0D95BE70A2837D137
:1043B000012000F011FC002809D1FFF735FC04F0C2
:1043C00023FA2368264A9B189842F1D94AE72E4DD2
:1043D0002E492A000AF06EF8012000F0FDFB0028AB
:1043E00009D1FFF721FC04F00FFA23681C4A9B183F
:1043F0009842F1D936E703780A2B11D10F4B1A787E
:104400002B689A420CD1114C2149206802F00EF918
:104410000C4B0F491B78002B00D17AE709B0F0BD97
:104420000A4C1C496CE7C0465C0B0020780D00204C
:104430007429010000000020258600006B0B00207D
:10444000600B0020AC220020840D002050060020CC
:104450005C220100640B0020740D0020701200200B
:104460001027000097240100680B00206C0B00202F
:1044700020240100700B0020740C00202324010074
:10448000602201003B240100700C00204024010048
:104490004324010071240100034B10B51B68002B5D
:1044A00000D09847002010BDC001002010B5034B7C
:1044B00010220349186802F024F910BD50060020AC
:1044C000AD44000070B5102200210AF063FF43687C
:1044D0000400013333D01A4802F08AFD0122194B3F
:1044E00019780A431A701A78D207D50F002AFAD120
:1044F000154801F0DCFA154801F0FEF801231449D3
:104500000A681A430A6013490A681A430A60124982
:104510000A681A430A60114A1380114A1380114A2B
:104520001380114B5D609D601D60236883F30888D4
:10453000FF2322009A430D4B9A606368184770BDB1
:10454000983100200050004120250020E822002062
:10455000002000420024004200280042002C0042BB
:10456000003000420034004210E000E000ED00E0C6
:1045700010B58024284B86B0A402A3420BD2082297
:104580002100684601F08CFE08222100684601F0F7
:10459000EBFE06B010BD214802F02AFD0122204B9F
:1045A00019780A431A701A78D207D40F002AFAD160
:1045B0001C4801F07CFA1C4801F09EF801231B49BD
:1045C00068460A681A430A6019490A681A430A6069
:1045D00018490A681A430A608021174A8902138021
:1045E000164A1380164A1380164B08225C609C60A2
:1045F0001C6001F055FE802108226846890201F006
:10460000B3FE80239B011A6882F308880E4A9360E8
:104610000E4B1B681847BCE771450000983100201D
:104620000050004120250020E82200200020004208
:104630000024004200280042002C004200300042CA
:104640000034004210E000E000ED00E00420000033
:1046500006210C4A10B5117080220B4B12065A60CD
:104660009A616422196A00290ADB013A002AF9D109
:104670008023064A9B029A4202D80548FFF722FF90
:1046800010BDC0465F440041004400415146000057
:10469000002701000B4B10B51B78002B05D10A4BEE
:1046A00019680A4B1868FDF74DFD094C10342300BA
:1046B000103B1968002904D0044B186801F0B6FFBC
:1046C000F4E710BDAC220020A822002050060020F4
:1046D000E001002010B504F0CDF8054B1B78002B4D
:1046E00004D1044B04491868FDF72CFD10BDC046E9
:1046F000AC220020500600205C22010070B50F495A
:10470000040009F04DFF0E4D002802D101232B704B
:1047100070BD20000B4909F043FF002806D10A496B
:1047200028700A4B1868FDF70DFDF1E70222084BCF
:104730001A602B78002BEBD10649F2E7082701001D
:10474000AC2200200B2701005C2201005006002053
:104750006C12002060220100294BF7B51B78294C10
:10476000002B04D1284B20681968FDF7EBFC274982
:10477000206801F05BFF00214B1C2548019300F0ED
:10478000AFFC051E3AD0266800F013FC0100300093
:1047900001F03AFF1F4E2068310001F035FF28007C
:1047A000276800F029FC0A220100380001F08FFF81
:1047B0003100206801F028FF2800276800F01EFC67
:1047C0000A220100380001F063FF3100206801F087
:1047D0001BFF2B0028331B780F49002B00D10F49FA
:1047E000206801F011FF2800266800F009FC0A2269
:1047F0000100300001F085FF0199BDE7F7BDC0461B
:10480000AC22002050060020A82200200F27010023
:10481000D40D0020382701003B2701004427010068
:10482000F8B50D001A4F04003900280009F0B8FE51
:10483000184E002811D02800174909F0B1FE0028B1
:104840000BD00222154B1A603378002B04D1144B85
:1048500014491868FDF776FCF8BD2100124800F0F5
:1048600051FC041EEDD03378002B05D10F4B196895
:104870000B4B1868FDF766FC3900280009F090FE24
:1048800028340123002800D000232370E4E7C04629
:104890004E270100AC220020532701006C1200209B
:1048A0005006002060220100D40D0020A822002024
:1048B000E12110B54902074802F098FB0022064B9F
:1048C00006495A5004395A5005495A5005495A5018
:1048D00010BDC04698310020701200200410000066
:1048E000081000000C10000010B5064A064C1178A4
:1048F0004B1CDBB213706054132B01D913231370BC
:1049000010BDC046C1220020AD220020F7B51D0019
:104910006D4B04001B780E001700002B0DD06B4B65
:1049200019686B4B19602079072800D9C9E005F098
:10493000C3FC435F790699ACC8BE664BF0E7A36839
:10494000002B13D1644F3B78002B47D1634E306866
:10495000FDF7F8FB3B78002B08D1E36830681B7843
:104960005F49002B00D15F4901F060FEA768012F6D
:1049700034D128005A4909F013FE574E00280DD0B3
:104980002800584909F00CFE002812D00222564B8C
:104990001A603378002B21D1544905E0E3681F7079
:1049A00033785349002B19D14C4B1868FDF7CAFBDB
:1049B00014E0E3681870F3E7A368002B0FD1464EAC
:1049C0003378002B0AD1454D2868FDF7BBFB3378BF
:1049D000002B03D1E168286801F028FEF7BD012B08
:1049E000FCD12900E06809F0E5FD3B4B1B78D8E7D6
:1049F000A368002B11D1384E3378002BEED1374D00
:104A00002868FDF79FFB3378002BE7D1E3680A2283
:104A10001968286801F05FFEE0E7012B02D1E36826
:104A20001E60E2E7A368002B15D12B4E3378002BD4
:104A3000D4D12A4D2868FDF785FB3378002B0AD1A5
:104A4000E368186808F0C6FB0B0002210091020021
:104A5000286801F01CFFA368012BBFD1E368099A05
:104A60001A60C2E7A368002B01D1E3689847A368E6
:104A7000012B02D13000E3689847A368022BADD127
:104A800039003000E3689847A8E7A368002B01D1FC
:104A9000E3689847A368012B02D12800E368984790
:104AA000A368022B9AD12800E3680899EBE7A36872
:104AB000032B00D092E739003000E368099A984749
:104AC0008CE7054B1B7865E7E4220020DC01002021
:104AD000A8220020D8010020AC220020500600208F
:104AE0004E270100532701006C12002060220100B4
:104AF0005C220100014BC0587047C0460C100000FA
:104B000070B580260F4C030005597601FF20B54291
:104B10000FDA9A590C48995482420BDC0132013564
:104B20009A511D513B2907D108495A5801325A5010
:104B3000002070BD0022F2E70D29F5D00A29F3D03C
:104B4000F6E7C04608100000FE0F00000C10000041
:104B5000F0B5144E03008159134A002902D1815047
:104B6000FF20F0BD114D124F4459005DBC4210DCD6
:104B7000013401395C51995199580D280DD03B28C9
:104B800009D10139995099580029EADA0021995040
:104B9000E7E70024EDE70A28F5D101390A2099500A
:104BA000F1E7C046081000000C10000004100000DF
:104BB000FE0F0000064A03008258FF20002A05D09D
:104BC000044A9A58985C0D2800D103387047C046B3
:104BD0000810000004100000F7B5022701901C4ED9
:104BE0003000FFF7E7FF0400FF2801D10020FEBDE1
:104BF000184D2B78132B01D913232B700A280BD0B7
:104C000003003A3BDBB2012B06D92C2804D05B38D9
:104C1000B843C0B2002815D12C78002C16D1300032
:104C2000FFF796FFFFF760FE2000FFF75DFE002C08
:104C3000D5D109482C7003782C2BD8D1019B002B9F
:104C4000D5D1D3E73000FFF783FFEDE70024EBE792
:104C500070120020C1220020AD220020F0B589B0E2
:104C6000974905A803F026FD964E3378052B16D1FB
:104C7000954A964BD358002B07DC0124644205A8C3
:104C800003F0D0FC200009B0F0BD0024904B1A685E
:104C9000904B12019B18DB6898473470EFE78E4BFE
:104CA0001878002819D08848FFF752FF0300FF2822
:104CB000E3D02C2801D10024E1E70D28FBD087495F
:104CC000874A0C681268601C1219086000240A2BBD
:104CD0006ED1814B14701C70D1E7FFF77DFF051E6C
:104CE000CBD00378002BC8D07E4B1B78002B0CD088
:104CF0007D4B1B78002B08D17C4C210009F050FC27
:104D000000280CD100237A4A13703078002306283B
:104D100075D805F0D1FA195476927474A000744BCA
:104D2000744F1978002903D0386803681B689847C6
:104D30002900386801F068FC2100280009F030FCE7
:104D40000028DFD02C23DEE728006B4909F028FC7F
:104D50000028B0D02800654909F022FC0028AAD01C
:104D600001235B4A5B42136000230393039B1F01F3
:104D7000584BFF183968002900D19CE0280009F041
:104D80000FFC041E08D1524B039A1A603B79062B84
:104D900005D10523337072E7039B0133E5E7082B48
:104DA00008D1FA684E4B1A604C4B4B4A18600123ED
:104DB000137064E7BB68002B4BDD0123EAE74F4C1F
:104DC000290005A8237003F088FC05A803F096FCD1
:104DD00005A803F0BCFC4A4B186005A803F0CAFC08
:104DE000484B05991860200009F0E4FB384B1A681D
:104DF000384B12019B189B68012B2ADD022333706C
:104E000059E7414C290005A8237003F066FC05A86A
:104E100003F074FC05A803F09AFC3C4B059918605C
:104E2000200009F0C7FB2A4B1A682A4B12019B1875
:104E30009B68022B0DDD0323E1E7290005A803F0A1
:104E40004CFC05A803F05AFC05A803F093FC2D4B7D
:104E500018600623D3E72800244909F0A1FB0028A5
:104E600012D02800244909F09BFB00280CD0002315
:104E700033701D4B1C78002C00D01CE71D4B2449BF
:104E80001868FDF75FF9FAE601220024104B524240
:104E900018681A600F4B0001C0181A4B34701B6859
:104EA0001A4A0193184B164900931268134B09686C
:104EB000FFF72CFDE3E60122164B1A60D9E7C04646
:104EC00074290100D0220020701200200C10000074
:104ED000D4220020E0010020DC220020E02200207B
:104EE000D8220020E4220020AC22002099340100C6
:104EF000DD220020500600205927010080220020DA
:104F0000C4220020CC22002094220020C8220020AD
:104F1000602201006C12002010B501000148FFF76B
:104F2000EFFD10BD70120020024B1A68024B1A6090
:104F30007047C046D8010020A8220020CB43DB17D1
:104F40001940836841605918C1607047C16070475B
:104F500010B50400002902DA03F056FC0100E368F2
:104F600000208B4201DC2834207810BD70B504008D
:104F70000B4B0E00083303600A491830150003F08C
:104F800099FB2300012228331A70EA430023D21729
:104F90001540200066626560E560A360E46270BD54
:104FA000782901007429010010B5183003F095FB31
:104FB00010BD8069704710B50400002902DA03F0C3
:104FC00023FC01006368A1605918E16010BD012154
:104FD00010B504004942FFF7EEFF03F015FC636AC9
:104FE0002061002B00D0984703F00EFC2369C01A03
:104FF000606110BD41627047C06A70474068704789
:1050000040697047436AF7B50400002B00D0984709
:1050100003F0FAFB23002500070000266C3330352F
:105020000193E36EB34211DB286800280AD00368BD
:1050300039009B6801369847002803D02868036828
:10504000DB689847019B0435AB42EAD1012120007F
:105050004942FFF7B0FFF7BD020070B530320500DE
:1050600013006C351C68002C03D0E46ACE6AB4428D
:105070000DD00433AB42F5D100239C001459002C11
:1050800007D10C339B001950C36E0133C366012056
:1050900003E001330F2BF0D1002070BD03000100AD
:1050A000002230336C3104C38B42FCD1C26670479E
:1050B000002270B504000D001100FFF757FF074BE9
:1050C0002000083323600023E366FFF7E7FF290091
:1050D0002000FFF733FF200070BDC046902901007B
:1050E0000200030010B5012430326C3364421068B2
:1050F000002802D001348C4203D004329A42F6D107
:10510000002010BD70B505000E0000242B00A20089
:105110003033985800280BD0FFF74BFF01003000C8
:1051200009F03EFA002803D10C34A400605970BD88
:1051300001340F2CEAD10020F9E7FF234374013B2F
:10514000FF3B017443827047F8B51323C356050033
:105150000F00013305D1134800F008FD04002000C2
:10516000F8BD0726002413200021285603F000FE76
:1051700001211120B1402856394003F0F9FD1320D8
:105180000121285603F0F4FD122064002856E4B2F1
:1051900003F01AFE002801D001231C43013EE2D295
:1051A000DDE7C04620250020102337B5C356050093
:1051B0000C0001331ED10179006800F0A2FA2868C2
:1051C000210003681B689847286800F05CFB0222F6
:1051D0002979286800F0F4FA286803685B69984721
:1051E00004002868240203685B6998470443A4B25A
:1051F00020003EBD1323C356013307D16A46002366
:1052000093801449019A144800F05AFC10200021A0
:10521000285603F0ADFD802128002143FFF794FFBD
:1052200000212800FFF790FF002104002800FFF76D
:105230008BFF2402044310200121285603F098FD1F
:105240001323EB56A4B20133D2D1034800F054FC2F
:10525000CEE7C04620A1070020250020102337B547
:10526000C35604000D00013322D10179006800F01B
:1052700048FA2068290003681B689847206800F0F6
:1052800002FB03222179206800F09AFA2068036863
:105290005B6998470502206803685B699847054386
:1052A00020682D0203685B699847054328003EBDCE
:1052B0001323C356013307D16A460023938016494E
:1052C000019A164800F0FCFB10200021205603F044
:1052D0004FFD802120002943FFF736FF00212000E9
:1052E000FFF732FF002105022000FFF72DFF00210C
:1052F00005432000FFF728FF2D0205431020012160
:10530000205603F035FD1323E3560133CED1034875
:1053100000F0F2FBCAE7C04620A1070020250020CC
:1053200010B5FA210400FFF799FF80231B0498426F
:105330001BD0A38A0212D21AC01152435B00C31AB7
:105340001621605E121343431821605EDB12424354
:10535000052092139B1858438030E360001206F03A
:10536000DBF8034905F00CFC10BD0248FCE7C04621
:105370000000C8420000C07FF0B587B00190FFF781
:10538000CFFFF7210198FFF769FF802304901B04EA
:10539000984200D1B3E00127019B5A4EDB687F425F
:1053A0000293029AD317B6185F4132003B003000D7
:1053B000390005F0B1F9019B04001C20185E0D00B6
:1053C00032003B00C11705F0A7F9030D9C46624669
:1053D0000B031343039303030293019B22001E203C
:1053E000185E2B00C11705F097F90B06020A1A4345
:1053F0000B120298039980185941802300221B0246
:1054000080185941019B5A8B002305F085F94B10F8
:105410000293CB170593059A029B002013436CD08F
:10542000019B22002420185E2B00C11705F074F99F
:10543000019B04002220185E32003B000D00C117C2
:1054400005F06AF9C70B4B043B434204A4185D41C5
:10545000049B181180235B031B1ADF175A08F907F6
:1054600011430022D807019B2027DF5FFB001219A0
:105470006B41801A99410023234A05F04DF9029AA5
:10548000059B05F025F9CB04440B1C43019B06004A
:105490002A20185E4D130F0022002B00C11705F0C3
:1054A0003BF922002B0005F037F9CB01440E1C43D9
:1054B000019B32002820185E4D163B00C11705F0F5
:1054C0002BF9A4197D41C20C4E033243CB14A4180E
:1054D0005D412B06200A1843019B291226241C5FDC
:1054E000E617250F33012B4322018018594105F09F
:1054F00059F9EE21890505F00DFD07B0F0BD03480F
:10550000FBE7C046000CFEFF350C00000000C07F2A
:1055100010B50400FFF704FFFD212000FFF744FE53
:1055200080231B02984242D0E368224A80039A18E3
:105530003221635E1B05C01A3421635E8021534310
:10554000C901C31A5B18D9132300802030331B789C
:1055500000025343DB121818230036331B782C3417
:105560005BB2534380229B12434392039B129818D1
:105570000222A35E8022434392019B189B1359434E
:10558000C81340432278C01150430011081AC34386
:10559000DB171840C8235B05984200DD1800001394
:1055A00005F0BAFFEA21890505F0B4FC10BD0248F8
:1055B000FCE7C04600D4FEFF0000C07F10B50C1C05
:1055C000FFF7DAFE0C4905F0DBFA211C05F0D8FAEA
:1055D00007F000FE094A0A4B03F04AFD02000B00E7
:1055E0000020084907F0BAF90022074B06F04AFFED
:1055F00007F038FE10BDC0460000C842EBE2361A84
:10560000C05BC83F0000F03F40A5E5400020704768
:10561000F8B505000E0017000024BC4208D02B6826
:105620002800315D1B689847002801D00134F4E759
:105630002000F8BD70470300FC33196ADA69914213
:1056400003D01B6AC018007E704701204042FBE770
:105650000300FC33D8691B6AC01A01D50130FF3042
:1056600070470000F7B50193FA2380270025040056
:105670009B008360114B7F0008330E0045602900BA
:10568000009203603A00183008F025F8230020004B
:10569000FC332130DD613A001D622900FF3008F043
:1056A0001AF887239B00E3185D609D60009B200033
:1056B0002375019B2661A5756375FEBDA8290100B0
:1056C00070B504001826006901F0D1FB206901F0D3
:1056D00022FA33000821207D064D4343EB1859562A
:1056E00003F08AFB0821607D4643AD19695603F03B
:1056F00083FB70BD4830010010B5006901F020FA4D
:1057000010BD8A2300229B00C1540C3BC3185A6071
:105710009A600123837570478C239B00C1507047AA
:105720008B239B00C15070478D239B00C150704755
:105730000200FC32536810B501339468DBB29C421E
:1057400002D054680155536010BDF7B50193002392
:105750000400150018009A422FD02200FC32D361B9
:1057600020691362012201F01DFA002826D02700CB
:10577000206901F099FA183701003800FFF7D8FFC7
:1057800001262069B5420ED001F0ECF90221206912
:1057900001F0F2F9206901F087FA01003800FFF703
:1057A000C7FF0136EDE701F0D5F9019B002B03D0CF
:1057B0000321206901F0E0F9E8B2FEBD0500FBE736
:1057C00010B50123FFF7C1FF10BD10B50300827DA6
:1057D000002082420ED0872292009C186268A46842
:1057E0000132D2B2A24205D02133FF331800FFF7B5
:1057F0009FFF012010BD0300FC3399685A68914255
:1058000006D09A68805C9A680132D2B29A6070477A
:1058100001204042FBE700228A2370B59B0082757D
:1058200005000E00C15C006901F0BCF9002806D13A
:105830000321286901F0A0F90224200070BD87230C
:1058400028009B00EA18536894682130FF301C1B25
:1058500001D50134FF34002C0ED02C69FFF7CBFFAB
:10586000C1B2200001F0DCF90028E8D10321286949
:1058700001F082F90324E0E7002EDED0032128693D
:1058800001F07AF9D9E710B50121FFF7C4FF10BD87
:1058900010B51830FFF7AFFF10BD70B504000069F8
:1058A00001F0E0F9002814D0206901F0E9F900289E
:1058B00010D0206901F056F90321206901F05CF94C
:1058C0008C239B00E558002D39D10023FC34E36183
:1058D000236270BD206901F0DDF9002809D020693C
:1058E00001F0D3F9002804D0206901F0D8F900288C
:1058F000DFD0206901F0CEF9002826D1206901F01F
:10590000BAF90028E5D0206901F0C9F900283DD096
:1059100087239B00E218536892689B1A01D50133D4
:10592000FF33FF21002B05D020002130FF30FFF78F
:1059300062FFC1B2206901F086F9A075C9E723684A
:1059400020001B699847A847BFE7206901F00AF9C2
:105950000321206901F010F98D239B00E358002BEF
:1059600000D09847206901F09AF90028B1D0872328
:1059700000229B00E3185A609A600123A3758B23D1
:105980009B00E3589342A4D09847A2E72200FC3240
:10599000D369126A0133DBB22069934206D101F068
:1059A000D9F80321206901F0E7F892E701F07CF9CA
:1059B000010020001830FFF7BBFE206901F0D2F88B
:1059C000EFE7000010B50248FFF767FF10BDC046C3
:1059D000E822002010B51523142202490248FFF7DF
:1059E00041FE10BD8C310020E822002010B500F0EF
:1059F00099FB0022024B8000C35849331A7010BD36
:105A000074250020F0B5040085B01E000AAB1B7899
:105A1000103001930BAB1B78170002930CAB1B7873
:105A20000D00039300F000FA2000243000F0FCF990
:105A3000220000234832A363E3632364636413708A
:105A4000537063729D4205D12721084B084A0948CB
:105A500007F0A0FD2000019B25606371029B277168
:105A6000E371039BA671237205B0F0BDCC29010040
:105A7000DD290100312A010030B5040085B002ADF6
:105A800000680291039200F0AFFF6B79227AE1790E
:105A900020680093002301F0C1F92979029A206857
:105AA00001F002F8206800F095FF05B030BD10B598
:105AB0000400006800F081FF0023637210BD000045
:105AC00007B5837A00910192002B07D09A070AD577
:105AD000EFF310835A425341C37272B60099019A90
:105AE000FFF7CAFF07BDDB07F8D5C368014A9BB2C1
:105AF0009360F3E700180040837A002B05D09A07E3
:105B000004D5C37A002B00D062B67047DB07FCD502
:105B1000C368024A9BB2D360F7E7C0460018004052
:105B200010B50068002903D1013100F067FF10BDF6
:105B30000021FAE7030010B50800032907D804F094
:105B4000BBFB070B02090021186800F071FF10BDB4
:105B50000121F9E70221F7E70321F5E710B5006815
:105B6000012900D8022100F0B3FF10BD10B5006874
:105B700000F07EFF10BDF8B5050000680C0000F0D5
:105B800051FF260AE7B2012810D139002800FF276B
:105B9000FFF7ECFFBC43310004432800FFF7E6FFAA
:105BA000010220003840084380B2F8BD31002800CF
:105BB000FFF7DCFFFF2600023440044339002800D1
:105BC000FFF7D4FFB4432043EEE7000010B50068B0
:105BD00001F078F803000020834203DB0C304343DC
:105BE000014A985810BDC046982A010010B50068B7
:105BF00001F068F8002805DB0C2343430348C01874
:105C0000406810BD01204042FBE7C046982A0100D1
:105C100010B5006801F056F8002805DB0C2343435B
:105C20000348C018806810BD01204042FBE7C04611
:105C3000982A0100F0B506001036050089B0300042
:105C400000F048F900286CD12F002437380000F00C
:105C500041F9041E62D12800FFF7DAFFC1B230001B
:105C600000F018FA0221300000F038FA01222E4923
:105C7000300000F00BFA300000F054FA2B4B80009B
:105C8000C5502800FFF7B2FFC1B2380000F002FA99
:105C90000221380000F022FA380000F043FA234BCA
:105CA0008000C5502800FFF791FF0123010022006A
:105CB000029330002300049403940194009400F0B4
:105CC00033FAA8632800FFF781FF012302002100B7
:105CD000019338002300049403940294009400F08C
:105CE00023FAE863402007F0D9FC2A0048322864F0
:105CF000079200280BD00123137068646B6C10228C
:105D00001819E96B103407F0DDFC402CF6D1079B25
:105D10001B78002B05D1380000F076F9300000F038
:105D200073F909B0F0BDC046ED590000742500209C
:105D300070B5437A0400002B03D1012243814272E3
:105D4000C360230048331B78002B02D12000FFF7EB
:105D500071FF18263300082120790D4D4343EB18BD
:105D6000595603F049F833000821A0794343EB1852
:105D7000595603F041F8082160794643AD19695638
:105D800003F03AF8034B200006CBFFF775FE70BD19
:105D9000483001006C2500201FB5094A094B0A490B
:105DA0001360002393800293013301931633009311
:105DB000162201330548FFF725FE05B000BDC04699
:105DC0006C25002000093D00903100202025002096
:105DD000084B1968002909D1EFF31080064A002802
:105DE00003D172B6BFF35F8F013111701A680132AF
:105DF0001A6070473827002034270020084B1A68A3
:105E0000002A0CD01A68013A1A601B68002B06D1D0
:105E1000044B1B78002B02D0BFF35F8F62B6704734
:105E20003827002034270020FF2310B50370C0233B
:105E3000002104009B004170418083800C220830C7
:105E400007F049FC200010BD01230A0010B51A40DC
:105E5000194208D00C4A1370033343708368002B37
:105E600000D0984710BD0223194204D006490B7098
:105E7000C3684270F3E704231942F3D0024A137057
:105E8000033343700369EAE74E48004110B5FFF75A
:105E90009FFF0C4B1B8C1B071B0F0B2B0FD80A4AA9
:105EA0009900885800280AD00F2408490A78A2438C
:105EB00013430B70064B1978C9B2FFF7C5FFFFF704
:105EC0009DFF10BD004800413C2700203F48004195
:105ED0004E480041F8B500230278050018000B2A4F
:105EE00077D93C4E2B702B780B2B07D801229A4088
:105EF0003168114204D001332B70F4E7012068E0CF
:105F0000FFF766FF3768344C002F2BD12022334B2C
:105F1000334859690A435A611022D9690A43DA6140
:105F2000022223883900934323802388013A1343B4
:105F300023802C4B6063BF32A36307F0CCFBC022ED
:105F40003900284807F0C7FB4022C120264B8000BB
:105F50002380264B26491A601A581140C022120489
:105F60000A431A5001231A00297830688A400243F4
:105F700032600F261F4A880085501F483140027842
:105F8000B2430A43027002201C4A11788143117007
:105F9000117819431170297822698B409A43226144
:105FA00060223F21636C934363642A79636C0A40E7
:105FB000134912020B400321134363646A79636C33
:105FC0000A40104992050B4013436364FFF716FF24
:105FD0000020F8BD302700200048004100040040A8
:105FE00070260020B0250020020F000000E100E034
:105FF000FFFF00FF3C2700203F4800414048004190
:10600000FFC0FFFFFFFF3FFF70B50500FFF7E0FE99
:106010006B785CB2062B2BD02B7802240B2B27D865
:1060200001229A40144B1968114221D019689143FA
:1060300019601B68002B14D14022104BDA67BFF3A4
:106040004F8FBFF36F8F21000D4A0E311388A3438A
:1060500013800C4BDA698A43DA615A6910318A433A
:106060005A6100242B78084A9B009C50FF232B7018
:10607000FFF7C4FE200070BD3027002004E100E0DF
:1060800000480041000400403C27002002329200FA
:1060900011507047037870B505000C0001710B2B8F
:1060A00014D8FFF795FE29780F2509482940037871
:1060B000084AAB430B4303703F23516C1C40064B13
:1060C000240219400C435464FFF798FE70BDC0468B
:1060D0003F48004100480041FFC0FFFF037870B512
:1060E00005000C0041710B2B14D8FFF771FE2978C5
:1060F0000F25094829400378084AAB430B43037036
:106100000323516C1C40064BA40519400C435464F6
:10611000FFF774FE70BDC0463F4800410048004193
:10612000FFFF3FFF00787047F0B587B001930CABDD
:106130001E780DAB1B78050002930EAB1B78007820
:10614000039310AB1F78049105920B2802D900200D
:1061500007B0F0BD6B78062BF9D0AB78002B00D1DF
:1061600079E01021080007F08FFA0028EFD02B7893
:106170003B4A1B019B181A00D168002904D0D16842
:106180008B4201D0D268F7E7D06001220223AA70C7
:10619000964203D0DB18022E00D01300062401889B
:1061A000114301800188A143018001881234A14379
:1061B0000180153C018826402A4C360221400E43BE
:1061C0000680029E0188284C16402140B6020E43EC
:1061D0000680039E0188254C16402140F6020E439E
:1061E00006800188224E3A40314012030A430721BB
:1061F00002800F9A114002884903D204D20C0A434C
:1062000002806A4692884280049A4260029A002A7A
:1062100008D0019A41685A43002F01D00F9CA24038
:106220008A184260059A8260039A002A09D0019A6E
:1062300084685A431300002F01D10F9A9340E3184A
:1062400083600023EA789A4203D02B78044A1B012A
:106250009B18C3607CE7024B0001C01895E7C0465D
:1062600070260020FFFCFFFFFFFBFFFFFFF7FFFF93
:10627000FFEFFFFF10B5054A0549064800F010F88A
:106280000022054B05491A705A5410BD0104000044
:10629000002B0100702B00206C270020020400005E
:1062A00030B5094D094CAB685B035B0F9B001C5973
:1062B0000460AB6801619BB243606343A4008360E8
:1062C000C460426130BDC046004000410030010062
:1062D000F7B58026194D01916F6803333E439B0843
:1062E0006E60002B29D0164E2E802E7DF107FCD536
:1062F0001E000768991BBF088F4217D9002E15D0C2
:10630000FF2117788C433C430E4957780C403F02DD
:106310003C439778A4B23904D7780C433F060199DF
:106320003C4310C101910432013EE2E7064B2B8051
:106330002B7DDB07FCD53300D3E7F7BD00400041E0
:1063400044A5FFFFFF00FFFF04A5FFFF044B054A24
:106350004908D9611A801A7DD207FCD57047C0461A
:106360000040004102A5FFFF70B504000D001600BB
:10637000E36829002000B34205D2FFF7E7FFE36896
:10638000ED18F61AF4E7FFF7E1FF70BD10B5100045
:106390001A0007F097F910BD842200239200835061
:1063A000043283527047F8B585278022BF000D0064
:1063B000C15B04005200914202D90368DB68984730
:1063C0008026E35B0020B600B34212D0842189000E
:1063D000625A531C9BB2A21863521574B34200D385
:1063E000605272B685229200A35A0133A35262B65C
:1063F0000120F8BD85239B00C05A7047852210B547
:106400009200825A0300002A14D00C4C015B4A1CF3
:1064100092B241180253087C802189008A4201D33C
:1064200000221A5372B6852189005A5A013A5A52EB
:1064300062B610BD01204042FBE7C04612020000D8
:1064400000207047F7B58525802300910192AD00AB
:10645000425B04005B009A4202D90368DB689847FC
:106460008023625B00209B009A421DD084258526F4
:10647000AD00B600019A904215D0615B009F4A1CA6
:1064800092B262533F5C61180F7401309A4201D39B
:106490000022625372B6A25B013292B2A2539A42B8
:1064A00001D062B6E6E762B6FEBDF8B58625AD005E
:1064B00043590400002B23D003681B699847002828
:1064C0001EDD87239B00E15C6059FFF71AF91E2649
:1064D000236820001B69984700280CDD23682000F2
:1064E0005B69675998473B68C1B21B683800013E39
:1064F0009847002EECD186239B00E058FFF7C3F9A4
:10650000F8BD000000234360FA239B008360024B28
:10651000083303607047C046203001007047842272
:106520000023920083500432835204328350704718
:1065300010B5024801F04CFE10BDC046882B00206B
:1065400010B5024801F044FE10BDC046842E002064
:10655000F7B501240326154F1549380000F0A4F9BA
:106560001449154800F0A0F91449154800F09CF9A9
:106570001449154800F098F91449154800F094F9A9
:10658000144D1549280000F08FF9390023000096BA
:1065900000220194114801F0B1FD290000961E234C
:1065A0001F2201940E4801F0A9FDF7BD80310020A3
:1065B00000080042000C004284310020001000421C
:1065C00088310020001400428C3100200018004265
:1065D0009031002094310020001C0042882B0020C4
:1065E000842E0020F8B505000E0017000024BC42E0
:1065F00008D02B682800315D1B689847002801D01F
:106600000134F4E72000F8BD10B5FBF79BFD10BD89
:1066100010B503681B68984710BD000010B502490B
:10662000FBF790FD10BDC0469834010070B5040022
:10663000FBF788FD05002000FFF7F0FF401970BD53
:10664000F0B58BB06B4614000022053307000D0037
:10665000DA77012C00D80A2409AE2800210003F0C3
:10666000CFFE0300CAB2080029001D001300373313
:10667000DBB2092802D813003033DBB2013E33709D
:106680008C42EAD931003800FBF75CFD0BB0F0BD5D
:10669000F8B507000D00161E04D10368C9B21B68C7
:1066A0009847F8BD0A2A0CD100290BDA2D21FFF7F3
:1066B000AFFF3200040069423800FFF7C1FF201825
:1066C000EFE7D2B229003800FFF7BAFFE9E710B5CB
:1066D000FFF7DEFF10BD70B50400FFF7D9FF05001E
:1066E0002000FFF79BFF401970BD10B5002A04D1B0
:1066F0000368C9B21B68984710BDD2B2FFF7A0FF6C
:10670000FAE770B50500FFF7F0FF04002800FFF777
:1067100085FF201870BD0000F7B51C0008AB1B7882
:1067200021000093070023001000150006F0A8FCCC
:106730004A4900281ED1012266007608280031004F
:10674000474B524206F09CFC002809D1012231003F
:106750002800434B524203F063FF4249002809D00E
:10676000E02228002100404B120603F063FF0028BE
:1067700006D03E493800FBF7E5FC06003000FEBDC0
:10678000E022280021003A4B120603F03FFF0028C8
:10679000EFD1002200232800210003F037FF00285A
:1067A00014D02D213800FFF733FF80231B06019002
:1067B000E418002600202F49009BB34208D0002295
:1067C0002D4B013605F058FAF6B2F5E70190F0E7E7
:1067D0002A00230004F0E6FE0D00040003F0C4FFCD
:1067E000060006F0D1FC0B0002002900200006F094
:1067F000B5F80A2204000D0038003100FFF720FF31
:10680000019BC618009B002B04D038001B49FBF7E6
:1068100099FC3618009B013BDBB20093FF2BADD0F7
:10682000154B00222000290005F02CFE0D0004006D
:1068300003F09AFF0A22010001903800FFF700FFE1
:106840003618019806F0A0FC02000B002000290079
:1068500006F084F804000D00DCE7C0469B3401001C
:10686000FFFFEF7F9F340100FFFFEF41A3340100E2
:10687000FFFFEFC10000E03F000024406F24010053
:1068800007B50499C9B20091FFF746FF0EBD37B5B1
:1068900006990400C9B20091FFF73EFF05002000F1
:1068A000FFF7BCFE40193EBD016070479446F0B54D
:1068B00005AC25789C1E621E9441624606689207CC
:1068C000376824063A432243072432600068214097
:1068D000AD01002442682943022B00D05C030A4327
:1068E00022434260F0BD30B5C0250368AD031C688B
:1068F00012052A402243C0240904A40221400A436D
:106900001A6003685A6814435C6030BD0123026852
:1069100011680B43136003681A68D207FCD4DA6964
:10692000D207F9D470470223026811680B43136041
:106930000268D3699B07FCD4704703681A7ED207AC
:1069400002D41A7E9207FCD57047002203685A834E
:1069500070470368187E4007C00F70470368187EB1
:10696000C0097047802302685B42117E0B43137697
:1069700070470368588B8007C00F70470223026876
:10698000518B0B43538370470368187EC007C00FB9
:1069900070470368188DC0B2704703681A7ED2072B
:1069A000FCD589B2012019857047012203689A75C8
:1069B0007047012203681A75704701230268116845
:1069C0000B43136003681A68D207FCD4DA69D20754
:1069D000F9D470470223026811680B431360026800
:1069E000D3699B07FCD470470368DA699207FCD42B
:1069F00002211A688A431A607047000070B50500CA
:106A00000C00FFF7F1FF01212A6821401368044CB4
:106A100089071C400C4328001460FFF7DBFF70BDA2
:106A2000FFFFFFBF036818684000C00F70470000F9
:106A3000F8B5050001260C004F08FFF7D5FF2A68BE
:106A40000949136837407F070B403B4313602B68AD
:106A5000064A19683440114024070C4328001C6082
:106A6000FFF7B8FFF8BDC046FFFFFFDFFFFFFFEFF6
:106A70000268936A5B0A5B020B43936203681A7EA7
:106A80005207FCD5986AC0B27047000010B505489F
:106A9000490003F02FFC80B2002801D0013880B2F9
:106AA000C0B210BD006CDC0270B50C0001261100F4
:106AB0006308026833403440156824075B072343AA
:106AC0002B4313600468FFF7E1FF207370BD0000E3
:106AD00070B50E000400FFF787FF3100064803F091
:106AE00009FC01002000FFF7D1FF25682873200072
:106AF000FFF770FF70BDC046006CDC020123026826
:106B000011680B43136003681A68D207FCD4DA6972
:106B1000D207F9D470470223026811680B4313604F
:106B20000368DA699207FCD430215A8B8A4311003A
:106B300010220A435A830268D3695B07FCD470476A
:106B40000221026813688B4313600268D3699B07B4
:106B5000FCD4704780230268DB02116851680B4344
:106B600053607047036803491A685A680A405A60BC
:106B70007047C046FFFFFBFF032230B5036811409A
:106B80001C68074D5A6809042A40E4061143640F43
:106B90005960052C03D10268D3695B07FCD430BD72
:106BA000FFFFFCFF30B503680400588B8006800FA0
:106BB000022813D05D8B0020AD06AD0F032D2ED023
:106BC000588B800705D55D8B0020AD06AD0F012DDC
:106BD00025D15D8BAD06AD0F281E20D04800596A27
:106BE0001043C90AC0B2C902014359622368002A8E
:106BF00008D11A7ED207FCD5588B01234007C00F5D
:106C000058400CE01A7E9207D00F002AF4DB1A7E5F
:106C1000D207F7D5C022596892020A435A6030BDA4
:106C20000368283319700268137EDB07D80F002B26
:106C300003D1538BDB07F7D570470123508B4007F7
:106C4000C00F5840F8E70368283319700268137EB4
:106C50005B07D80F002B04DA0123508B4007C00FCD
:106C60005840704703681868C006400F0438434214
:106C70005841C0B270470368187E4007C00F704784
:106C80000368187EC007C00F70470368588BC006A2
:106C9000C00F70470368187E8007C00F70470368F5
:106CA000588B0007C00F704703681A68D206520F4E
:106CB000052A02D11A7E9207FCD528331878C0B273
:106CC000704700000368104A934213D00F4A934262
:106CD00012D00F4A934211D00E4A934210D00E4A5E
:106CE00093420FD001200D4A4042934201D1063019
:106CF00040B270470020FBE70120F9E70220F7E7E8
:106D00000320F5E70420F3E700080042000C0042EE
:106D1000001000420014004200180042001C004213
:106D2000F8B5FFF7CFFF00282CDB1D4BC00018186B
:106D300005230479C3560320FF221840C000824077
:106D4000C021D2438140002B1DDB1F2501201D40A7
:106D5000C026A840134D7600A851C0269B089B0072
:106D60005B19B6009F593A401143995128603F235F
:106D700023408024E4011C430B4B5C805A7852B2C0
:106D8000002AFBDBF8BD0F200340083B07489B08A7
:106D90009B001B18D86902401143D961E7E7C04640
:106DA000A834010000E100E0000C004000ED00E02C
:106DB000F8B504000F0016001D00FFF7B1FF20001A
:106DC000FFF7A4FD1C21BB000B4071072268090CD2
:106DD0000B431360842322689375012F1AD110216D
:106DE000012E00D008390C4B69431868C00003F02D
:106DF00081FA0722216802408B895203DB04DB0CF5
:106E000013438B81226803049089DB0C400B400301
:106E100018439081F8BDC046D0060020F7B50500A4
:106E2000019308AB0C0016001F78FFF7C6FD280081
:106E3000FFF776FFC021C022890224040C40920390
:106E4000BF073605274316403E430C2707222B6811
:106E50003E431E60019B296813401A0080239B0259
:106E600013434B602A68D3695B07FCD4F7BD70B548
:106E700004000D001600FFF753FF2000FFF73EFE51
:106E80001C2221686D000B6893431A0010231343E2
:106E90000B60FF2123680D405D62002E04D00123AA
:106EA0002268516A0B435362072322689375226854
:106EB000D3695B07FCD470BD3F20704713B56B46A8
:106EC0000268D9710733546819000122A04716BD22
:106ED00010B50221006900F033FC10BD10B503218C
:106EE000006900F043FC10BD10B51300084A04000F
:106EF000D279002A03D101230020636010BD0A006B
:106F00000069032100F02AFD0028F4D0F6E7C0460E
:106F10005806002010B5054C03002068421C04D11F
:106F20001A68180052699047206010BDA40600201E
:106F3000074A0300106810B5411C03D001235B42CF
:106F4000136010BD0221186900F0FAFCF9E7C04691
:106F5000A406002010B503784222023303700249D0
:106F6000024800F0A7FD10BD60060020B4310020EB
:106F700010B50178030042780020A12908D1212A08
:106F800005D1174917481A3A00F094FD012010BDA9
:106F90002129FCD1202A13D111491248193A00F0B5
:106FA00029FC96220E4BD200196891420ED1DA7953
:106FB00001231A420AD1FA2001F07CFF0020E6E703
:106FC000222A06D19A78064BDA71EAE701F078FFB7
:106FD000F4E7232ADBD15A88034B1A60D7E7C0466F
:106FE00058060020B43100205406002070470000ED
:106FF00010B508220021024806F06DFB10BDC04606
:1070000058060020FA220021054B92009A60054A9A
:1070100008321A60044A59601A6119767047C046EE
:1070200098310020D8340100B4310020704770B589
:107030000F26CB1D02003240D5B22C00000930349F
:10704000092A00DD07341C705A1E994200D170BD18
:107050001300EFE710B50400806906F029FBA06A71
:1070600006F026FB200010BD10B50400FFF7F2FF6C
:10707000200001F047FC200010BD000070B503297E
:1070800008D1324B8000C058002802D00368DB686A
:10709000984770BD82291FD1C3B22D4D5A01AA183D
:1070A00091692C4C80010C40C021890521439161DC
:1070B000294908334018802150612A685B01D018A3
:1070C00004794942214301717020995C8143080091
:1070D000302101439954DCE70029DAD1C024C1B240
:1070E0001B4E4A01B21893681A4DA4052B40234346
:1070F00093601A4B8001C0180B005060306807265F
:1071000008335B01195CB1430E000121314319546E
:1071100091690D402C43946170240F495161195CB1
:10712000A1430C0010212143195491680C4CC31841
:107130000C4080214903214391609168890B8903A8
:107140009160402259790A435A71A2E7B831002070
:107150006C360020FFFFFF8FE0310020A0330020BD
:10716000FF3F00F0EFF3108303600123436072B62A
:1071700070470368002B02D162B6BFF36F8F704770
:1071800037B5056904006846002D14D1FFF7EAFF02
:10719000019B621D013B02D3D57FEDB2FAE7684641
:1071A0000193FFF7E6FF002D01D100203EBD206ACC
:1071B000E369C01AFAE7FFF7D5FF22000025019B1B
:1071C0003432013B02D31578EDB2FAE768460193F9
:1071D000FFF7CFFF002DE8D0206BE36AE9E700005E
:1071E000F0B5FF2501264268836811682B405B01DA
:1071F000CC186419A77AD3183E43A672C6689C6857
:107200000B4FB60436093C4034439C6083682B40E6
:107210005B01D2189468A40BA40394604022836895
:107220002B4008335B01CB1819790A431A71F0BD62
:10723000FF3F00F0F7B5056904000E00170068462F
:10724000002D43D1FFF78EFF019B601D013B5A1CAF
:107250000BD0C27F591E002A05D168460193FFF763
:1072600088FF2800FEBD0B00F1E768460193FFF799
:1072700080FFE369AF420AD0226A9A4207D95A1CBA
:10728000E261A269D3181B7873550135F1E7226AD0
:107290009A42E6D10023E361013368462361FFF798
:1072A00061FF22000021019B671D013B3532581C04
:1072B000D3D0F97710785E1E002805D02000117019
:1072C0000193FFF78DFFECE73300F0E7FFF74AFF8C
:1072D0002000019B3430013B5A1C06D00278591E15
:1072E000D5B2002AB9D00B00F6E768460193002515
:1072F000FFF73FFFE36ABD4202D0226B9A421CD8DF
:10730000226B9A42ADD100236846E3622361FFF706
:1073100029FF270022000021019B3437013B353231
:10732000581C9AD0397010785E1E00280DD02000AD
:1073300011700193FFF754FFEBE75A1CE262A26A57
:10734000D3181B7873550135D4E73300E8E7F7B558
:1073500082684368D2B211000400083118684901FC
:107360004118C879C00729D501255201CD719B1854
:107370009A6861699204920C002923D12262226AE0
:10738000002A41D0A26A656168465A60FFF7EAFEAA
:10739000342294462200019B671D013BA4443532F0
:1073A000591C2DD06146FD770978581ECEB20029B0
:1073B00005D0019368461570FFF7DBFEF7BD0300AB
:1073C0001670EDE72263226B002A1DD000222700F1
:1073D0006261A26968465A60FFF7C4FE019B621DA4
:1073E0009446013B34373032591C09D061463D7018
:1073F000C97F581ECEB20029DBD103001670F3E717
:1074000068460193FFF7B5FE2000FFF7E9FED5E7D8
:1074100013B56A4600230C00D01DD371FFF79AFD07
:1074200023681818206001F0C1FD6B46D91D01F0DA
:1074300089FD236818186B462060D87916BD0000B6
:1074400003290ED180220E4B62311B68FF31585C3C
:10745000524202435A5468226339FF32FF39995429
:1074600070470129FCD18022054B24311B68FF3174
:10747000585C524202435A5428222339FF32EDE726
:107480006C36002070B500252F4B012104001A2016
:107490001D7001F03DFC01211A2001F069FC2B4B0D
:1074A000012119201D7001F033FC0121192001F088
:1074B0005FFC2023264A0F20D1690B43D3610122B0
:1074C00024490B7813430B70234B197881431970AF
:1074D00006211D782943197020490D782A430A7026
:1074E0001A7802401A70602219780A431A701C4BED
:1074F0001C4A5A805A78D209FCD11B4801F07EF907
:107500001A4D280001F066FD280001F079FD7F2169
:107510002B68C1201A7880000A401A70042219785A
:107520000A430C211A701A898A4311491A810A5890
:107530001202120A0A5080220A6019787E3A0A431F
:107540001A700123237070BDD5310020D431002082
:1075500000040040584400413C440041594400416B
:10756000000C0040064000003D7F00006C3600200B
:1075700000E100E00078002810D00121084B1B68D2
:107580001A898A431A810822198B0A431A83042212
:10759000198B0A431A830022024B1A607047C046B7
:1075A0006C360020643600200A000E498B699B0B64
:1075B0009B038B610B680221FF3319729879823922
:1075C00001439971197A8907FCD57F20064B024047
:1075D000997A8143114380229972997A52420A43DF
:1075E0009A7270476C3600200050004110B50B793C
:1075F0000C00002B0CD10800FFF7BAFC002801D0CA
:10760000012010BD094A93699B0B9B039361F7E727
:1076100001F0CCFC210001F0B9FC0028F0D1034AB4
:1076200093699B0B9B039361EBE7C0466C3600208C
:10763000F7B50D001100832A19D1EBB2324C5A0173
:10764000A21891693148AD010840C0218905014364
:1076500091612F4920686D187021083355615B01D5
:107660001A5C8A43110040220A431A54F7BD022AC9
:1076700045D1284AAB009858002802D003685B69BE
:107680009847382001F03AF9234B80270360002304
:107690001D4E7F00421D036203614361C36146606A
:1076A0008560C760D3772F32C36203630400137011
:1076B0003800537005F0F2FF0190A061380005F02A
:1076C000EDFFEBB25A01A062B21891680F4808337F
:1076D0000840C021890501439160316807265B019C
:1076E000585CAD00B0430600032030435854019B62
:1076F00020005360FFF774FD064B5C51B6E728008D
:10770000FFF7BCFCB2E7C0466C360020FFFFFF8FDE
:10771000E0310020B83100200435010070B50500CB
:107720000124064BA200D258002A05D021002800CF
:10773000FFF77EFF0134F4E770BDC046A8060020C5
:10774000084B8A00D05810B5002803D003689B6806
:10775000984710BD044BC9B2490159188868800484
:10776000800CF6E7B83100206C36002010B50C0014
:10777000FFF7E6FF00280CD0064BE4B2196880231F
:10778000083464010C1962795B421343637102236C
:10779000E37110BD6C36002070B5CBB2124A1348AD
:1077A0005C0189018918021951609168104D0833F4
:1077B0000D40802189022943402591609168890B01
:1077C0008903916001685A018A1816793543157149
:1077D00095796D06FCD55B01C918CB79DB07FCD523
:1077E00000198068C0B270BDA03300206C36002044
:1077F000FF3F00F070B5140040220B4B0D001B68DA
:10780000FF3359790A435A710021FFF7C5FFA0429F
:1078100000D9200000230549A34203D0CA5CEA54E2
:107820000133F9E770BDC0466C360020A03300205C
:1078300010B50C48C9B24901421893689B049B0CCF
:107840003F2B0BD99468403B9B04A40B9B0CA403D7
:107850002343936041188868C0B210BD93689B0BA6
:107860009B03F6E76C360020F0B51C002F4B85B06B
:107870001B6806000D000192002B54D02C4F3B7862
:10788000D9B2002B02D1192001F072FA64233B70A7
:10789000284BAA00D058002808D0036822005B6853
:1078A000019998470400200005B0F0BD2900300080
:1078B000FFF746FF844204D929003000FFF740FF5C
:1078C000040029003000FFF7B3FF0121EBB21A4F8B
:1078D00003935B010293029A3B6801989B18FF3364
:1078E0005A7A0A435A72154BA9012200C91805F0A9
:1078F000E9FE002CD7D029003000FFF721FF002837
:10790000D1D14021039B3A6808335B01D318187921
:10791000014319710121D971029BD318FF339A7A5F
:107920000A439A72BFE701246442BCE76436002030
:10793000D4310020B83100206C360020A033002064
:1079400013B56B46DC1D22000123FFF78DFF0128D4
:1079500001D1207816BD01204042FBE7F0B51C00A4
:107960003A4B85B01B680E000192002B3FD080235C
:10797000DB019C423BD8364D2B78D9B2002B02D18B
:107980001A2001F0F5F9642300272B70314BB20166
:10799000D3180293002C2CD02F4B1B680393FF238A
:1079A00033401D0000930835039B6D015D19AB79D1
:1079B000DB0921D0294B2A49186802F09BFC294B8E
:1079C0001721584302F096FC274BEA79920713D40B
:1079D0009A5D002A01D10138F7D201229A55009B05
:1079E0005A011D4B9B189A69920B92039A610127C9
:1079F0007F42380005B0F0BD00221B4B25009A5590
:107A0000402C00D940252A000199029805F05AFE21
:107A1000009BA9045A01104B890C9B18029A7F19EC
:107A20005A619A69641B920B92030A439A61009B04
:107A3000039A08335B01D3180222DA715979823A2A
:107A40000A435A71019B5B190193A3E76436002036
:107A5000D5310020E03100206C360020D006002017
:107A600040420F0070110100D731002070B50C00AA
:107A70001D000D4BA601F618110030002A0005F07C
:107A800021FEE4B2094A640114196661A369084938
:107A900028000B40A361A169AB04890B9B0C8903EF
:107AA0001943A16170BDC046E03100206C36002052
:107AB000FF3F00F0F7B5104B0F001B78140001904A
:107AC000002B0CD10D4B16001D78002D09D00C4E4B
:107AD0000C48358828182D1905F0F4FD3580200054
